{
  "_format": "hh-sol-artifact-1",
  "contractName": "Registry",
  "sourceName": "contracts/Registry.sol",
  "abi": [
    {
      "inputs": [
        {
          "internalType": "address",
          "name": "admin",
          "type": "address"
        }
      ],
      "stateMutability": "nonpayable",
      "type": "constructor"
    },
    {
      "inputs": [],
      "name": "AccessControlBadConfirmation",
      "type": "error"
    },
    {
      "inputs": [
        {
          "internalType": "address",
          "name": "account",
          "type": "address"
        },
        {
          "internalType": "bytes32",
          "name": "neededRole",
          "type": "bytes32"
        }
      ],
      "name": "AccessControlUnauthorizedAccount",
      "type": "error"
    },
    {
      "anonymous": false,
      "inputs": [
        {
          "indexed": true,
          "internalType": "bytes32",
          "name": "role",
          "type": "bytes32"
        },
        {
          "indexed": true,
          "internalType": "bytes32",
          "name": "previousAdminRole",
          "type": "bytes32"
        },
        {
          "indexed": true,
          "internalType": "bytes32",
          "name": "newAdminRole",
          "type": "bytes32"
        }
      ],
      "name": "RoleAdminChanged",
      "type": "event"
    },
    {
      "anonymous": false,
      "inputs": [
        {
          "indexed": true,
          "internalType": "bytes32",
          "name": "role",
          "type": "bytes32"
        },
        {
          "indexed": true,
          "internalType": "address",
          "name": "account",
          "type": "address"
        },
        {
          "indexed": true,
          "internalType": "address",
          "name": "sender",
          "type": "address"
        }
      ],
      "name": "RoleGranted",
      "type": "event"
    },
    {
      "anonymous": false,
      "inputs": [
        {
          "indexed": true,
          "internalType": "bytes32",
          "name": "role",
          "type": "bytes32"
        },
        {
          "indexed": true,
          "internalType": "address",
          "name": "account",
          "type": "address"
        },
        {
          "indexed": true,
          "internalType": "address",
          "name": "sender",
          "type": "address"
        }
      ],
      "name": "RoleRevoked",
      "type": "event"
    },
    {
      "inputs": [],
      "name": "ADMIN_ROLE",
      "outputs": [
        {
          "internalType": "bytes32",
          "name": "",
          "type": "bytes32"
        }
      ],
      "stateMutability": "view",
      "type": "function"
    },
    {
      "inputs": [],
      "name": "DEFAULT_ADMIN_ROLE",
      "outputs": [
        {
          "internalType": "bytes32",
          "name": "",
          "type": "bytes32"
        }
      ],
      "stateMutability": "view",
      "type": "function"
    },
    {
      "inputs": [
        {
          "internalType": "address",
          "name": "newAdmin",
          "type": "address"
        }
      ],
      "name": "changeAdmin",
      "outputs": [],
      "stateMutability": "nonpayable",
      "type": "function"
    },
    {
      "inputs": [],
      "name": "doAdminTask",
      "outputs": [],
      "stateMutability": "nonpayable",
      "type": "function"
    },
    {
      "inputs": [
        {
          "internalType": "bytes32",
          "name": "role",
          "type": "bytes32"
        }
      ],
      "name": "getRoleAdmin",
      "outputs": [
        {
          "internalType": "bytes32",
          "name": "",
          "type": "bytes32"
        }
      ],
      "stateMutability": "view",
      "type": "function"
    },
    {
      "inputs": [
        {
          "internalType": "bytes32",
          "name": "role",
          "type": "bytes32"
        },
        {
          "internalType": "address",
          "name": "account",
          "type": "address"
        }
      ],
      "name": "grantRole",
      "outputs": [],
      "stateMutability": "nonpayable",
      "type": "function"
    },
    {
      "inputs": [
        {
          "internalType": "bytes32",
          "name": "role",
          "type": "bytes32"
        },
        {
          "internalType": "address",
          "name": "account",
          "type": "address"
        }
      ],
      "name": "hasRole",
      "outputs": [
        {
          "internalType": "bool",
          "name": "",
          "type": "bool"
        }
      ],
      "stateMutability": "view",
      "type": "function"
    },
    {
      "inputs": [
        {
          "internalType": "bytes32",
          "name": "role",
          "type": "bytes32"
        },
        {
          "internalType": "address",
          "name": "callerConfirmation",
          "type": "address"
        }
      ],
      "name": "renounceRole",
      "outputs": [],
      "stateMutability": "nonpayable",
      "type": "function"
    },
    {
      "inputs": [
        {
          "internalType": "bytes32",
          "name": "role",
          "type": "bytes32"
        },
        {
          "internalType": "address",
          "name": "account",
          "type": "address"
        }
      ],
      "name": "revokeRole",
      "outputs": [],
      "stateMutability": "nonpayable",
      "type": "function"
    },
    {
      "inputs": [
        {
          "internalType": "bytes4",
          "name": "interfaceId",
          "type": "bytes4"
        }
      ],
      "name": "supportsInterface",
      "outputs": [
        {
          "internalType": "bool",
          "name": "",
          "type": "bool"
        }
      ],
      "stateMutability": "view",
      "type": "function"
    }
  ],
  "bytecode": "0x608060405234801561001057600080fd5b506040516107a23803806107a283398101604081905261002f916101d0565b6001600160a01b0381166100955760405162461bcd60e51b815260206004820152602360248201527feab480eba6acec9e9020eca3bcec868ceab08020ed9584ec9a94ed95a9eb8b886044820152623ae2e960ea1b606482015260840160405180910390fd5b6100a06000826100d9565b506100b9600080516020610782833981519152826100d9565b506100d36000805160206107828339815191526000610185565b50610200565b6000828152602081815260408083206001600160a01b038516845290915281205460ff1661017b576000838152602081815260408083206001600160a01b03861684529091529020805460ff191660011790556101333390565b6001600160a01b0316826001600160a01b0316847f2f8788117e7eff1d82e926ec794901d17c78024a50270940304540a733656f0d60405160405180910390a450600161017f565b5060005b92915050565b600082815260208190526040808220600101805490849055905190918391839186917fbd79b86ffe0ab8e8776151514217cd7cacd52c909f66475c3af44e129f0b00ff9190a4505050565b6000602082840312156101e257600080fd5b81516001600160a01b03811681146101f957600080fd5b9392505050565b6105738061020f6000396000f3fe608060405234801561001057600080fd5b506004361061009e5760003560e01c80638f283970116100665780638f2839701461013957806391d148541461014c578063a217fddf1461015f578063d547741f14610167578063f6b8af051461017a57600080fd5b806301ffc9a7146100a3578063248a9ca3146100cb5780632f2ff15d146100fc57806336568abe1461011157806375b238fc14610124575b600080fd5b6100b66100b1366004610470565b610182565b60405190151581526020015b60405180910390f35b6100ee6100d93660046104a1565b60009081526020819052604090206001015490565b6040519081526020016100c2565b61010f61010a3660046104d6565b6101b9565b005b61010f61011f3660046104d6565b6101e4565b6100ee60008051602061051e83398151915281565b61010f610147366004610502565b61021c565b6100b661015a3660046104d6565b6102c3565b6100ee600081565b61010f6101753660046104d6565b6102ec565b61010f610311565b60006001600160e01b03198216637965db0b60e01b14806101b357506301ffc9a760e01b6001600160e01b03198316145b92915050565b6000828152602081905260409020600101546101d48161032c565b6101de8383610336565b50505050565b6001600160a01b038116331461020d5760405163334bd91960e11b815260040160405180910390fd5b61021782826103c8565b505050565b60006102278161032c565b6001600160a01b0382166102925760405162461bcd60e51b815260206004820152602760248201527fec838820eab480eba6acec9e9020eca3bcec868ceab08020ed9584ec9a94ed956044820152662a7ae2e23ae2e960ca1b60648201526084015b60405180910390fd5b6102aa60008051602061051e833981519152336103c8565b5061021760008051602061051e83398151915283610336565b6000918252602082815260408084206001600160a01b0393909316845291905290205460ff1690565b6000828152602081905260409020600101546103078161032c565b6101de83836103c8565b60008051602061051e8339815191526103298161032c565b50565b6103298133610433565b600061034283836102c3565b6103c0576000838152602081815260408083206001600160a01b03861684529091529020805460ff191660011790556103783390565b6001600160a01b0316826001600160a01b0316847f2f8788117e7eff1d82e926ec794901d17c78024a50270940304540a733656f0d60405160405180910390a45060016101b3565b5060006101b3565b60006103d483836102c3565b156103c0576000838152602081815260408083206001600160a01b0386168085529252808320805460ff1916905551339286917ff6391f5c32d9c69d2a47ea670b442974b53935d1edc7fd64eb21e047a839171b9190a45060016101b3565b61043d82826102c3565b61046c5760405163e2517d3f60e01b81526001600160a01b038216600482015260248101839052604401610289565b5050565b60006020828403121561048257600080fd5b81356001600160e01b03198116811461049a57600080fd5b9392505050565b6000602082840312156104b357600080fd5b5035919050565b80356001600160a01b03811681146104d157600080fd5b919050565b600080604083850312156104e957600080fd5b823591506104f9602084016104ba565b90509250929050565b60006020828403121561051457600080fd5b61049a826104ba56fea49807205ce4d355092ef5a8a18f56e8913cf4a201fbe287825b095693c21775a26469706673582212204103ee17697162e85c70d30d8db576432fb224b6961fcdbe0aae6bb5550aee1d64736f6c634300081c0033a49807205ce4d355092ef5a8a18f56e8913cf4a201fbe287825b095693c21775",
  "linkReferences": {},
  "deployedLinkReferences": {}
}