{
  "_format": "hh-sol-artifact-1",
  "contractName": "SoulboundTicket",
  "sourceName": "contracts/SoulboundTicket.sol",
  "abi": [
    {
      "inputs": [
        {
          "internalType": "address payable",
          "name": "_adminAddress",
          "type": "address"
        }
      ],
      "stateMutability": "nonpayable",
      "type": "constructor"
    },
    {
      "inputs": [
        {
          "internalType": "address",
          "name": "sender",
          "type": "address"
        },
        {
          "internalType": "uint256",
          "name": "tokenId",
          "type": "uint256"
        },
        {
          "internalType": "address",
          "name": "owner",
          "type": "address"
        }
      ],
      "name": "ERC721IncorrectOwner",
      "type": "error"
    },
    {
      "inputs": [
        {
          "internalType": "address",
          "name": "operator",
          "type": "address"
        },
        {
          "internalType": "uint256",
          "name": "tokenId",
          "type": "uint256"
        }
      ],
      "name": "ERC721InsufficientApproval",
      "type": "error"
    },
    {
      "inputs": [
        {
          "internalType": "address",
          "name": "approver",
          "type": "address"
        }
      ],
      "name": "ERC721InvalidApprover",
      "type": "error"
    },
    {
      "inputs": [
        {
          "internalType": "address",
          "name": "operator",
          "type": "address"
        }
      ],
      "name": "ERC721InvalidOperator",
      "type": "error"
    },
    {
      "inputs": [
        {
          "internalType": "address",
          "name": "owner",
          "type": "address"
        }
      ],
      "name": "ERC721InvalidOwner",
      "type": "error"
    },
    {
      "inputs": [
        {
          "internalType": "address",
          "name": "receiver",
          "type": "address"
        }
      ],
      "name": "ERC721InvalidReceiver",
      "type": "error"
    },
    {
      "inputs": [
        {
          "internalType": "address",
          "name": "sender",
          "type": "address"
        }
      ],
      "name": "ERC721InvalidSender",
      "type": "error"
    },
    {
      "inputs": [
        {
          "internalType": "uint256",
          "name": "tokenId",
          "type": "uint256"
        }
      ],
      "name": "ERC721NonexistentToken",
      "type": "error"
    },
    {
      "inputs": [
        {
          "internalType": "address",
          "name": "owner",
          "type": "address"
        }
      ],
      "name": "OwnableInvalidOwner",
      "type": "error"
    },
    {
      "inputs": [
        {
          "internalType": "address",
          "name": "account",
          "type": "address"
        }
      ],
      "name": "OwnableUnauthorizedAccount",
      "type": "error"
    },
    {
      "anonymous": false,
      "inputs": [
        {
          "indexed": true,
          "internalType": "address",
          "name": "owner",
          "type": "address"
        },
        {
          "indexed": true,
          "internalType": "address",
          "name": "approved",
          "type": "address"
        },
        {
          "indexed": true,
          "internalType": "uint256",
          "name": "tokenId",
          "type": "uint256"
        }
      ],
      "name": "Approval",
      "type": "event"
    },
    {
      "anonymous": false,
      "inputs": [
        {
          "indexed": true,
          "internalType": "address",
          "name": "owner",
          "type": "address"
        },
        {
          "indexed": true,
          "internalType": "address",
          "name": "operator",
          "type": "address"
        },
        {
          "indexed": false,
          "internalType": "bool",
          "name": "approved",
          "type": "bool"
        }
      ],
      "name": "ApprovalForAll",
      "type": "event"
    },
    {
      "anonymous": false,
      "inputs": [
        {
          "indexed": true,
          "internalType": "address",
          "name": "previousOwner",
          "type": "address"
        },
        {
          "indexed": true,
          "internalType": "address",
          "name": "newOwner",
          "type": "address"
        }
      ],
      "name": "OwnershipTransferred",
      "type": "event"
    },
    {
      "anonymous": false,
      "inputs": [
        {
          "indexed": true,
          "internalType": "address",
          "name": "from",
          "type": "address"
        },
        {
          "indexed": true,
          "internalType": "address",
          "name": "to",
          "type": "address"
        },
        {
          "indexed": true,
          "internalType": "uint256",
          "name": "tokenId",
          "type": "uint256"
        }
      ],
      "name": "Transfer",
      "type": "event"
    },
    {
      "inputs": [],
      "name": "FEE_DENOMINATOR",
      "outputs": [
        {
          "internalType": "uint256",
          "name": "",
          "type": "uint256"
        }
      ],
      "stateMutability": "view",
      "type": "function"
    },
    {
      "inputs": [],
      "name": "FEE_NUMERATOR",
      "outputs": [
        {
          "internalType": "uint256",
          "name": "",
          "type": "uint256"
        }
      ],
      "stateMutability": "view",
      "type": "function"
    },
    {
      "inputs": [],
      "name": "adminAddress",
      "outputs": [
        {
          "internalType": "address payable",
          "name": "",
          "type": "address"
        }
      ],
      "stateMutability": "view",
      "type": "function"
    },
    {
      "inputs": [
        {
          "internalType": "address",
          "name": "",
          "type": "address"
        },
        {
          "internalType": "uint256",
          "name": "",
          "type": "uint256"
        }
      ],
      "name": "approve",
      "outputs": [],
      "stateMutability": "pure",
      "type": "function"
    },
    {
      "inputs": [
        {
          "internalType": "address",
          "name": "owner",
          "type": "address"
        }
      ],
      "name": "balanceOf",
      "outputs": [
        {
          "internalType": "uint256",
          "name": "",
          "type": "uint256"
        }
      ],
      "stateMutability": "view",
      "type": "function"
    },
    {
      "inputs": [
        {
          "internalType": "uint256",
          "name": "tokenId",
          "type": "uint256"
        }
      ],
      "name": "getApproved",
      "outputs": [
        {
          "internalType": "address",
          "name": "",
          "type": "address"
        }
      ],
      "stateMutability": "view",
      "type": "function"
    },
    {
      "inputs": [
        {
          "internalType": "address",
          "name": "",
          "type": "address"
        },
        {
          "internalType": "uint256",
          "name": "",
          "type": "uint256"
        }
      ],
      "name": "hasMintedForConcert",
      "outputs": [
        {
          "internalType": "bool",
          "name": "",
          "type": "bool"
        }
      ],
      "stateMutability": "view",
      "type": "function"
    },
    {
      "inputs": [
        {
          "internalType": "address",
          "name": "owner",
          "type": "address"
        },
        {
          "internalType": "address",
          "name": "operator",
          "type": "address"
        }
      ],
      "name": "isApprovedForAll",
      "outputs": [
        {
          "internalType": "bool",
          "name": "",
          "type": "bool"
        }
      ],
      "stateMutability": "view",
      "type": "function"
    },
    {
      "inputs": [
        {
          "internalType": "uint256",
          "name": "tokenId",
          "type": "uint256"
        }
      ],
      "name": "markAsUsed",
      "outputs": [],
      "stateMutability": "nonpayable",
      "type": "function"
    },
    {
      "inputs": [
        {
          "internalType": "uint256",
          "name": "tokenId",
          "type": "uint256"
        }
      ],
      "name": "markFaceVerified",
      "outputs": [],
      "stateMutability": "nonpayable",
      "type": "function"
    },
    {
      "inputs": [
        {
          "internalType": "uint256",
          "name": "concertId",
          "type": "uint256"
        },
        {
          "internalType": "string",
          "name": "seatNumber",
          "type": "string"
        },
        {
          "internalType": "string",
          "name": "uri",
          "type": "string"
        },
        {
          "internalType": "uint256",
          "name": "priceWei",
          "type": "uint256"
        }
      ],
      "name": "mintTicket",
      "outputs": [],
      "stateMutability": "payable",
      "type": "function"
    },
    {
      "inputs": [],
      "name": "name",
      "outputs": [
        {
          "internalType": "string",
          "name": "",
          "type": "string"
        }
      ],
      "stateMutability": "view",
      "type": "function"
    },
    {
      "inputs": [],
      "name": "nextTokenId",
      "outputs": [
        {
          "internalType": "uint256",
          "name": "",
          "type": "uint256"
        }
      ],
      "stateMutability": "view",
      "type": "function"
    },
    {
      "inputs": [],
      "name": "owner",
      "outputs": [
        {
          "internalType": "address",
          "name": "",
          "type": "address"
        }
      ],
      "stateMutability": "view",
      "type": "function"
    },
    {
      "inputs": [
        {
          "internalType": "uint256",
          "name": "tokenId",
          "type": "uint256"
        }
      ],
      "name": "ownerOf",
      "outputs": [
        {
          "internalType": "address",
          "name": "",
          "type": "address"
        }
      ],
      "stateMutability": "view",
      "type": "function"
    },
    {
      "inputs": [
        {
          "internalType": "uint256",
          "name": "tokenId",
          "type": "uint256"
        },
        {
          "internalType": "bytes32",
          "name": "hash",
          "type": "bytes32"
        }
      ],
      "name": "registerFaceHash",
      "outputs": [],
      "stateMutability": "nonpayable",
      "type": "function"
    },
    {
      "inputs": [],
      "name": "renounceOwnership",
      "outputs": [],
      "stateMutability": "nonpayable",
      "type": "function"
    },
    {
      "inputs": [
        {
          "internalType": "address",
          "name": "from",
          "type": "address"
        },
        {
          "internalType": "address",
          "name": "to",
          "type": "address"
        },
        {
          "internalType": "uint256",
          "name": "tokenId",
          "type": "uint256"
        }
      ],
      "name": "safeTransferFrom",
      "outputs": [],
      "stateMutability": "nonpayable",
      "type": "function"
    },
    {
      "inputs": [
        {
          "internalType": "address",
          "name": "",
          "type": "address"
        },
        {
          "internalType": "address",
          "name": "",
          "type": "address"
        },
        {
          "internalType": "uint256",
          "name": "",
          "type": "uint256"
        },
        {
          "internalType": "bytes",
          "name": "",
          "type": "bytes"
        }
      ],
      "name": "safeTransferFrom",
      "outputs": [],
      "stateMutability": "pure",
      "type": "function"
    },
    {
      "inputs": [
        {
          "internalType": "address payable",
          "name": "_newAdmin",
          "type": "address"
        }
      ],
      "name": "setAdminAddress",
      "outputs": [],
      "stateMutability": "nonpayable",
      "type": "function"
    },
    {
      "inputs": [
        {
          "internalType": "address",
          "name": "",
          "type": "address"
        },
        {
          "internalType": "bool",
          "name": "",
          "type": "bool"
        }
      ],
      "name": "setApprovalForAll",
      "outputs": [],
      "stateMutability": "pure",
      "type": "function"
    },
    {
      "inputs": [
        {
          "internalType": "bytes4",
          "name": "interfaceId",
          "type": "bytes4"
        }
      ],
      "name": "supportsInterface",
      "outputs": [
        {
          "internalType": "bool",
          "name": "",
          "type": "bool"
        }
      ],
      "stateMutability": "view",
      "type": "function"
    },
    {
      "inputs": [],
      "name": "symbol",
      "outputs": [
        {
          "internalType": "string",
          "name": "",
          "type": "string"
        }
      ],
      "stateMutability": "view",
      "type": "function"
    },
    {
      "inputs": [
        {
          "internalType": "uint256",
          "name": "",
          "type": "uint256"
        }
      ],
      "name": "tickets",
      "outputs": [
        {
          "internalType": "uint256",
          "name": "concertId",
          "type": "uint256"
        },
        {
          "internalType": "string",
          "name": "seatNumber",
          "type": "string"
        },
        {
          "internalType": "uint256",
          "name": "issuedAt",
          "type": "uint256"
        },
        {
          "internalType": "uint256",
          "name": "price",
          "type": "uint256"
        },
        {
          "internalType": "bool",
          "name": "isUsed",
          "type": "bool"
        },
        {
          "internalType": "bool",
          "name": "isFaceVerified",
          "type": "bool"
        },
        {
          "internalType": "bytes32",
          "name": "faceHash",
          "type": "bytes32"
        }
      ],
      "stateMutability": "view",
      "type": "function"
    },
    {
      "inputs": [
        {
          "internalType": "uint256",
          "name": "tokenId",
          "type": "uint256"
        }
      ],
      "name": "tokenURI",
      "outputs": [
        {
          "internalType": "string",
          "name": "",
          "type": "string"
        }
      ],
      "stateMutability": "view",
      "type": "function"
    },
    {
      "inputs": [
        {
          "internalType": "address",
          "name": "",
          "type": "address"
        },
        {
          "internalType": "address",
          "name": "",
          "type": "address"
        },
        {
          "internalType": "uint256",
          "name": "",
          "type": "uint256"
        }
      ],
      "name": "transferFrom",
      "outputs": [],
      "stateMutability": "pure",
      "type": "function"
    },
    {
      "inputs": [
        {
          "internalType": "address",
          "name": "newOwner",
          "type": "address"
        }
      ],
      "name": "transferOwnership",
      "outputs": [],
      "stateMutability": "nonpayable",
      "type": "function"
    }
  ],
  "bytecode": "0x6080604052600160075534801561001557600080fd5b50604051611d6f380380611d6f83398101604081905261003491610197565b336040518060400160405280600881526020016714d0951a58dad95d60c21b8152506040518060400160405280600381526020016214d09560ea1b81525081600090816100819190610266565b50600161008e8282610266565b5050506001600160a01b0381166100c057604051631e4fbdf760e01b8152600060048201526024015b60405180910390fd5b6100c981610145565b506001600160a01b0381166101205760405162461bcd60e51b815260206004820152601660248201527f41646d696e20616464726573732072657175697265640000000000000000000060448201526064016100b7565b600880546001600160a01b0319166001600160a01b0392909216919091179055610324565b600680546001600160a01b038381166001600160a01b0319831681179093556040519116919082907f8be0079c531659141344cd1fd0a4f28419497f9722a3daafe3b4186f6b6457e090600090a35050565b6000602082840312156101a957600080fd5b81516001600160a01b03811681146101c057600080fd5b9392505050565b634e487b7160e01b600052604160045260246000fd5b600181811c908216806101f157607f821691505b60208210810361021157634e487b7160e01b600052602260045260246000fd5b50919050565b601f82111561026157806000526020600020601f840160051c8101602085101561023e5750805b601f840160051c820191505b8181101561025e576000815560010161024a565b50505b505050565b81516001600160401b0381111561027f5761027f6101c7565b6102938161028d84546101dd565b84610217565b6020601f8211600181146102c757600083156102af5750848201515b600019600385901b1c1916600184901b17845561025e565b600084815260208120601f198516915b828110156102f757878501518255602094850194600190920191016102d7565b50848210156103155786840151600019600387901b60f8161c191681555b50505050600190811b01905550565b611a3c806103336000396000f3fe60806040526004361061019c5760003560e01c806370a08231116100ec578063b88d4fde1161008a578063e985e9c511610064578063e985e9c5146104a0578063f037ee6c146104c0578063f2fde38b146104e0578063fc6f94681461050057600080fd5b8063b88d4fde1461044f578063c87b56dd1461046a578063d73792a91461048a57600080fd5b80638c0479fd116100c65780638c0479fd146103ee5780638da5cb5b1461040157806395d89b411461041f578063a22cb4651461043457600080fd5b806370a08231146103a3578063715018a6146103c357806375794a3c146103d857600080fd5b8063399581ed116101595780634ae4a192116101335780634ae4a192146102f557806350b44712146103305780635da6a041146103635780636352211e1461038357600080fd5b8063399581ed1461029257806341cd47bf146102b257806342842e0e146102d557600080fd5b806301ffc9a7146101a157806306fdde03146101d6578063081812fc146101f8578063095ea7b31461023057806323b872dd146102525780632c1e816d14610272575b600080fd5b3480156101ad57600080fd5b506101c16101bc366004611411565b610520565b60405190151581526020015b60405180910390f35b3480156101e257600080fd5b506101eb610572565b6040516101cd919061147b565b34801561020457600080fd5b5061021861021336600461148e565b610604565b6040516001600160a01b0390911681526020016101cd565b34801561023c57600080fd5b5061025061024b3660046114bc565b61062d565b005b34801561025e57600080fd5b5061025061026d3660046114e8565b610673565b34801561027e57600080fd5b5061025061028d366004611529565b6106b4565b34801561029e57600080fd5b506102506102ad366004611546565b61072c565b3480156102be57600080fd5b506102c7600181565b6040519081526020016101cd565b3480156102e157600080fd5b506102506102f03660046114e8565b6107d0565b34801561030157600080fd5b506101c16103103660046114bc565b600a60209081526000928352604080842090915290825290205460ff1681565b34801561033c57600080fd5b5061035061034b36600461148e565b6107f0565b6040516101cd9796959493929190611568565b34801561036f57600080fd5b5061025061037e36600461148e565b6108bb565b34801561038f57600080fd5b5061021861039e36600461148e565b6109c2565b3480156103af57600080fd5b506102c76103be366004611529565b6109cd565b3480156103cf57600080fd5b50610250610a15565b3480156103e457600080fd5b506102c760075481565b6102506103fc36600461165d565b610a29565b34801561040d57600080fd5b506006546001600160a01b0316610218565b34801561042b57600080fd5b506101eb610cbf565b34801561044057600080fd5b5061025061024b3660046116d7565b34801561045b57600080fd5b5061025061026d366004611715565b34801561047657600080fd5b506101eb61048536600461148e565b610cce565b34801561049657600080fd5b506102c76103e881565b3480156104ac57600080fd5b506101c16104bb366004611795565b610d9e565b3480156104cc57600080fd5b506102506104db36600461148e565b610dcc565b3480156104ec57600080fd5b506102506104fb366004611529565b610e76565b34801561050c57600080fd5b50600854610218906001600160a01b031681565b60006001600160e01b031982166380ac58cd60e01b148061055157506001600160e01b03198216635b5e139f60e01b145b8061056c57506301ffc9a760e01b6001600160e01b03198316145b92915050565b606060008054610581906117c3565b80601f01602080910402602001604051908101604052809291908181526020018280546105ad906117c3565b80156105fa5780601f106105cf576101008083540402835291602001916105fa565b820191906000526020600020905b8154815290600101906020018083116105dd57829003601f168201915b5050505050905090565b600061060f82610eb4565b506000828152600460205260409020546001600160a01b031661056c565b60405162461bcd60e51b815260206004820152601660248201527514d0950e88185c1c1c9bdd985b08191a5cd8589b195960521b60448201526064015b60405180910390fd5b60405162461bcd60e51b815260206004820152601660248201527514d0950e881d1c985b9cd9995c88191a5cd8589b195960521b604482015260640161066a565b6106bc610eed565b6001600160a01b03811661070a5760405162461bcd60e51b8152602060048201526015602482015274496e76616c69642061646d696e206164647265737360581b604482015260640161066a565b600880546001600160a01b0319166001600160a01b0392909216919091179055565b610734610eed565b60008281526009602052604081206002015490036107645760405162461bcd60e51b815260040161066a906117fd565b600082815260096020526040902060050154156107bb5760405162461bcd60e51b8152602060048201526015602482015274119858d9481a185cda08185b1c9958591e481cd95d605a1b604482015260640161066a565b60009182526009602052604090912060050155565b6107eb83838360405180602001604052806000815250610673565b505050565b60096020526000908152604090208054600182018054919291610812906117c3565b80601f016020809104026020016040519081016040528092919081815260200182805461083e906117c3565b801561088b5780601f106108605761010080835404028352916020019161088b565b820191906000526020600020905b81548152906001019060200180831161086e57829003601f168201915b505050506002830154600384015460048501546005909501549394919390925060ff808316926101009004169087565b6108c3610eed565b60008181526009602052604081206002015490036108f35760405162461bcd60e51b815260040161066a906117fd565b60008181526009602052604090206004015460ff161561094a5760405162461bcd60e51b8152602060048201526012602482015271151bdad95b88185b1c9958591e481d5cd95960721b604482015260640161066a565b600081815260096020526040902060040154610100900460ff166109a45760405162461bcd60e51b8152602060048201526011602482015270119858d9481b9bdd081d995c9a599a5959607a1b604482015260640161066a565b6000908152600960205260409020600401805460ff19166001179055565b600061056c82610eb4565b60006001600160a01b0382166109f9576040516322718ad960e21b81526000600482015260240161066a565b506001600160a01b031660009081526003602052604090205490565b610a1d610eed565b610a276000610f1a565b565b803414610a785760405162461bcd60e51b815260206004820152601860248201527f496e636f7272656374207061796d656e7420616d6f756e740000000000000000604482015260640161066a565b336000908152600a6020908152604080832087845290915290205460ff1615610ae35760405162461bcd60e51b815260206004820152601f60248201527f416c7265616479206d696e74656420666f72207468697320636f6e6365727400604482015260640161066a565b60006103e8610af3600134611841565b610afd9190611858565b6008546040519192506000916001600160a01b039091169083908381818185875af1925050503d8060008114610b4f576040519150601f19603f3d011682016040523d82523d6000602084013e610b54565b606091505b5050905080610b9b5760405162461bcd60e51b8152602060048201526013602482015272119959481d1c985b9cd9995c8819985a5b1959606a1b604482015260640161066a565b6000610ba7833461187a565b600780549192506000919082610bbc8361188d565b919050559050610bcc3382610f6c565b6000818152600b60205260409020610be487826118ed565b506040805160e08101825289815260208082018a815242838501526060830186905260006080840181905260a0840181905260c0840181905285815260099092529290208151815591519091906001820190610c4090826118ed565b50604082810151600283015560608301516003830155608083015160048301805460a086015115156101000261ff00199315159390931661ffff199091161791909117905560c090920151600590910155336000908152600a60209081528282209a825299909952909720805460ff1916600117905550505050505050565b606060018054610581906117c3565b60008181526009602052604081206002015460609103610d005760405162461bcd60e51b815260040161066a906117fd565b6000828152600b602052604090208054610d19906117c3565b80601f0160208091040260200160405190810160405280929190818152602001828054610d45906117c3565b8015610d925780601f10610d6757610100808354040283529160200191610d92565b820191906000526020600020905b815481529060010190602001808311610d7557829003601f168201915b50505050509050919050565b6001600160a01b03918216600090815260056020908152604080832093909416825291909152205460ff1690565b610dd4610eed565b6000818152600960205260408120600201549003610e045760405162461bcd60e51b815260040161066a906117fd565b600081815260096020526040902060050154610e565760405162461bcd60e51b8152602060048201526011602482015270119858d9481a185cda081b9bdd081cd95d607a1b604482015260640161066a565b6000908152600960205260409020600401805461ff001916610100179055565b610e7e610eed565b6001600160a01b038116610ea857604051631e4fbdf760e01b81526000600482015260240161066a565b610eb181610f1a565b50565b6000818152600260205260408120546001600160a01b03168061056c57604051637e27328960e01b81526004810184905260240161066a565b6006546001600160a01b03163314610a275760405163118cdaa760e01b815233600482015260240161066a565b600680546001600160a01b038381166001600160a01b0319831681179093556040519116919082907f8be0079c531659141344cd1fd0a4f28419497f9722a3daafe3b4186f6b6457e090600090a35050565b610f86828260405180602001604052806000815250610f8a565b5050565b610f948383610fa2565b6107eb336000858585611007565b6001600160a01b038216610fcc57604051633250574960e11b81526000600482015260240161066a565b6000610fda83836000611132565b90506001600160a01b038116156107eb576040516339e3563760e11b81526000600482015260240161066a565b6001600160a01b0383163b1561112b57604051630a85bd0160e11b81526001600160a01b0384169063150b7a02906110499088908890879087906004016119ac565b6020604051808303816000875af1925050508015611084575060408051601f3d908101601f19168201909252611081918101906119e9565b60015b6110ed573d8080156110b2576040519150601f19603f3d011682016040523d82523d6000602084013e6110b7565b606091505b5080516000036110e557604051633250574960e11b81526001600160a01b038516600482015260240161066a565b805181602001fd5b6001600160e01b03198116630a85bd0160e11b1461112957604051633250574960e11b81526001600160a01b038516600482015260240161066a565b505b5050505050565b6000828152600260205260408120546001600160a01b039081169083161561115f5761115f81848661122b565b6001600160a01b0381161561119d5761117c60008560008061128f565b6001600160a01b038116600090815260036020526040902080546000190190555b6001600160a01b038516156111cc576001600160a01b0385166000908152600360205260409020805460010190555b60008481526002602052604080822080546001600160a01b0319166001600160a01b0389811691821790925591518793918516917fddf252ad1be2c89b69c2b068fc378daa952ba7f163c4a11628f55a4df523b3ef91a4949350505050565b611236838383611395565b6107eb576001600160a01b03831661126457604051637e27328960e01b81526004810182905260240161066a565b60405163177e802f60e01b81526001600160a01b03831660048201526024810182905260440161066a565b80806112a357506001600160a01b03821615155b156113655760006112b384610eb4565b90506001600160a01b038316158015906112df5750826001600160a01b0316816001600160a01b031614155b80156112f257506112f08184610d9e565b155b1561131b5760405163a9fbf51f60e01b81526001600160a01b038416600482015260240161066a565b81156113635783856001600160a01b0316826001600160a01b03167f8c5be1e5ebec7d5bd14f71427d1e84f3dd0314c0f7b2291e5b200ac8c7c3b92560405160405180910390a45b505b5050600090815260046020526040902080546001600160a01b0319166001600160a01b0392909216919091179055565b60006001600160a01b038316158015906113f35750826001600160a01b0316846001600160a01b031614806113cf57506113cf8484610d9e565b806113f357506000828152600460205260409020546001600160a01b038481169116145b949350505050565b6001600160e01b031981168114610eb157600080fd5b60006020828403121561142357600080fd5b813561142e816113fb565b9392505050565b6000815180845260005b8181101561145b5760208185018101518683018201520161143f565b506000602082860101526020601f19601f83011685010191505092915050565b60208152600061142e6020830184611435565b6000602082840312156114a057600080fd5b5035919050565b6001600160a01b0381168114610eb157600080fd5b600080604083850312156114cf57600080fd5b82356114da816114a7565b946020939093013593505050565b6000806000606084860312156114fd57600080fd5b8335611508816114a7565b92506020840135611518816114a7565b929592945050506040919091013590565b60006020828403121561153b57600080fd5b813561142e816114a7565b6000806040838503121561155957600080fd5b50508035926020909101359150565b87815260e06020820152600061158160e0830189611435565b60408301979097525060608101949094529115156080840152151560a083015260c09091015292915050565b634e487b7160e01b600052604160045260246000fd5b60008067ffffffffffffffff8411156115de576115de6115ad565b50604051601f19601f85018116603f0116810181811067ffffffffffffffff8211171561160d5761160d6115ad565b60405283815290508082840185101561162557600080fd5b83836020830137600060208583010152509392505050565b600082601f83011261164e57600080fd5b61142e838335602085016115c3565b6000806000806080858703121561167357600080fd5b84359350602085013567ffffffffffffffff81111561169157600080fd5b61169d8782880161163d565b935050604085013567ffffffffffffffff8111156116ba57600080fd5b6116c68782880161163d565b949793965093946060013593505050565b600080604083850312156116ea57600080fd5b82356116f5816114a7565b91506020830135801515811461170a57600080fd5b809150509250929050565b6000806000806080858703121561172b57600080fd5b8435611736816114a7565b93506020850135611746816114a7565b925060408501359150606085013567ffffffffffffffff81111561176957600080fd5b8501601f8101871361177a57600080fd5b611789878235602084016115c3565b91505092959194509250565b600080604083850312156117a857600080fd5b82356117b3816114a7565b9150602083013561170a816114a7565b600181811c908216806117d757607f821691505b6020821081036117f757634e487b7160e01b600052602260045260246000fd5b50919050565b602080825260149082015273151bdad95b88191bd95cc81b9bdd08195e1a5cdd60621b604082015260600190565b634e487b7160e01b600052601160045260246000fd5b808202811582820484141761056c5761056c61182b565b60008261187557634e487b7160e01b600052601260045260246000fd5b500490565b8181038181111561056c5761056c61182b565b60006001820161189f5761189f61182b565b5060010190565b601f8211156107eb57806000526020600020601f840160051c810160208510156118cd5750805b601f840160051c820191505b8181101561112b57600081556001016118d9565b815167ffffffffffffffff811115611907576119076115ad565b61191b8161191584546117c3565b846118a6565b6020601f82116001811461194f57600083156119375750848201515b600019600385901b1c1916600184901b17845561112b565b600084815260208120601f198516915b8281101561197f578785015182556020948501946001909201910161195f565b508482101561199d5786840151600019600387901b60f8161c191681555b50505050600190811b01905550565b6001600160a01b03858116825284166020820152604081018390526080606082018190526000906119df90830184611435565b9695505050505050565b6000602082840312156119fb57600080fd5b815161142e816113fb56fea26469706673582212202389369ceb905a35045fadb59fb3fa3bf0fb5b9abbe95f9192f49a27a32746f364736f6c634300081c0033",
  "linkReferences": {},
  "deployedLinkReferences": {}
}